{
  "_format": "hh-sol-artifact-1",
  "contractName": "PunkCousins",
  "sourceName": "contracts/PunkCousins.sol",
  "abi": [
    {
      "inputs": [],
      "stateMutability": "payable",
      "type": "constructor"
    },
    {
      "anonymous": false,
      "inputs": [
        {
          "indexed": true,
          "internalType": "address",
          "name": "owner",
          "type": "address"
        },
        {
          "indexed": true,
          "internalType": "address",
          "name": "approved",
          "type": "address"
        },
        {
          "indexed": true,
          "internalType": "uint256",
          "name": "tokenId",
          "type": "uint256"
        }
      ],
      "name": "Approval",
      "type": "event"
    },
    {
      "anonymous": false,
      "inputs": [
        {
          "indexed": true,
          "internalType": "address",
          "name": "owner",
          "type": "address"
        },
        {
          "indexed": true,
          "internalType": "address",
          "name": "operator",
          "type": "address"
        },
        {
          "indexed": false,
          "internalType": "bool",
          "name": "approved",
          "type": "bool"
        }
      ],
      "name": "ApprovalForAll",
      "type": "event"
    },
    {
      "anonymous": false,
      "inputs": [
        {
          "indexed": true,
          "internalType": "address",
          "name": "previousOwner",
          "type": "address"
        },
        {
          "indexed": true,
          "internalType": "address",
          "name": "newOwner",
          "type": "address"
        }
      ],
      "name": "OwnershipTransferred",
      "type": "event"
    },
    {
      "anonymous": false,
      "inputs": [
        {
          "indexed": true,
          "internalType": "address",
          "name": "from",
          "type": "address"
        },
        {
          "indexed": true,
          "internalType": "address",
          "name": "to",
          "type": "address"
        },
        {
          "indexed": true,
          "internalType": "uint256",
          "name": "tokenId",
          "type": "uint256"
        }
      ],
      "name": "Transfer",
      "type": "event"
    },
    {
      "inputs": [
        {
          "internalType": "address",
          "name": "to",
          "type": "address"
        },
        {
          "internalType": "uint256",
          "name": "tokenId",
          "type": "uint256"
        }
      ],
      "name": "approve",
      "outputs": [],
      "stateMutability": "nonpayable",
      "type": "function"
    },
    {
      "inputs": [
        {
          "internalType": "address",
          "name": "owner",
          "type": "address"
        }
      ],
      "name": "balanceOf",
      "outputs": [
        {
          "internalType": "uint256",
          "name": "",
          "type": "uint256"
        }
      ],
      "stateMutability": "view",
      "type": "function"
    },
    {
      "inputs": [
        {
          "internalType": "uint256",
          "name": "tokenId",
          "type": "uint256"
        }
      ],
      "name": "getApproved",
      "outputs": [
        {
          "internalType": "address",
          "name": "",
          "type": "address"
        }
      ],
      "stateMutability": "view",
      "type": "function"
    },
    {
      "inputs": [
        {
          "internalType": "address",
          "name": "owner",
          "type": "address"
        },
        {
          "internalType": "address",
          "name": "operator",
          "type": "address"
        }
      ],
      "name": "isApprovedForAll",
      "outputs": [
        {
          "internalType": "bool",
          "name": "",
          "type": "bool"
        }
      ],
      "stateMutability": "view",
      "type": "function"
    },
    {
      "inputs": [],
      "name": "isPublicMintEnabled",
      "outputs": [
        {
          "internalType": "bool",
          "name": "",
          "type": "bool"
        }
      ],
      "stateMutability": "view",
      "type": "function"
    },
    {
      "inputs": [],
      "name": "maxPerWallet",
      "outputs": [
        {
          "internalType": "uint256",
          "name": "",
          "type": "uint256"
        }
      ],
      "stateMutability": "view",
      "type": "function"
    },
    {
      "inputs": [],
      "name": "maxSupply",
      "outputs": [
        {
          "internalType": "uint256",
          "name": "",
          "type": "uint256"
        }
      ],
      "stateMutability": "view",
      "type": "function"
    },
    {
      "inputs": [
        {
          "internalType": "uint256",
          "name": "quantity_",
          "type": "uint256"
        }
      ],
      "name": "mint",
      "outputs": [],
      "stateMutability": "payable",
      "type": "function"
    },
    {
      "inputs": [],
      "name": "mintPrice",
      "outputs": [
        {
          "internalType": "uint256",
          "name": "",
          "type": "uint256"
        }
      ],
      "stateMutability": "view",
      "type": "function"
    },
    {
      "inputs": [],
      "name": "name",
      "outputs": [
        {
          "internalType": "string",
          "name": "",
          "type": "string"
        }
      ],
      "stateMutability": "view",
      "type": "function"
    },
    {
      "inputs": [],
      "name": "owner",
      "outputs": [
        {
          "internalType": "address",
          "name": "",
          "type": "address"
        }
      ],
      "stateMutability": "view",
      "type": "function"
    },
    {
      "inputs": [
        {
          "internalType": "uint256",
          "name": "tokenId",
          "type": "uint256"
        }
      ],
      "name": "ownerOf",
      "outputs": [
        {
          "internalType": "address",
          "name": "",
          "type": "address"
        }
      ],
      "stateMutability": "view",
      "type": "function"
    },
    {
      "inputs": [],
      "name": "renounceOwnership",
      "outputs": [],
      "stateMutability": "nonpayable",
      "type": "function"
    },
    {
      "inputs": [
        {
          "internalType": "address",
          "name": "from",
          "type": "address"
        },
        {
          "internalType": "address",
          "name": "to",
          "type": "address"
        },
        {
          "internalType": "uint256",
          "name": "tokenId",
          "type": "uint256"
        }
      ],
      "name": "safeTransferFrom",
      "outputs": [],
      "stateMutability": "nonpayable",
      "type": "function"
    },
    {
      "inputs": [
        {
          "internalType": "address",
          "name": "from",
          "type": "address"
        },
        {
          "internalType": "address",
          "name": "to",
          "type": "address"
        },
        {
          "internalType": "uint256",
          "name": "tokenId",
          "type": "uint256"
        },
        {
          "internalType": "bytes",
          "name": "_data",
          "type": "bytes"
        }
      ],
      "name": "safeTransferFrom",
      "outputs": [],
      "stateMutability": "nonpayable",
      "type": "function"
    },
    {
      "inputs": [
        {
          "internalType": "address",
          "name": "operator",
          "type": "address"
        },
        {
          "internalType": "bool",
          "name": "approved",
          "type": "bool"
        }
      ],
      "name": "setApprovalForAll",
      "outputs": [],
      "stateMutability": "nonpayable",
      "type": "function"
    },
    {
      "inputs": [
        {
          "internalType": "string",
          "name": "baseTokenUri_",
          "type": "string"
        }
      ],
      "name": "setBaseTokenUri",
      "outputs": [],
      "stateMutability": "nonpayable",
      "type": "function"
    },
    {
      "inputs": [
        {
          "internalType": "bool",
          "name": "isPublicMintEnabled_",
          "type": "bool"
        }
      ],
      "name": "setIsPublicMintEnabled",
      "outputs": [],
      "stateMutability": "nonpayable",
      "type": "function"
    },
    {
      "inputs": [
        {
          "internalType": "bytes4",
          "name": "interfaceId",
          "type": "bytes4"
        }
      ],
      "name": "supportsInterface",
      "outputs": [
        {
          "internalType": "bool",
          "name": "",
          "type": "bool"
        }
      ],
      "stateMutability": "view",
      "type": "function"
    },
    {
      "inputs": [],
      "name": "symbol",
      "outputs": [
        {
          "internalType": "string",
          "name": "",
          "type": "string"
        }
      ],
      "stateMutability": "view",
      "type": "function"
    },
    {
      "inputs": [
        {
          "internalType": "uint256",
          "name": "tokenId_",
          "type": "uint256"
        }
      ],
      "name": "tokenURI",
      "outputs": [
        {
          "internalType": "string",
          "name": "",
          "type": "string"
        }
      ],
      "stateMutability": "view",
      "type": "function"
    },
    {
      "inputs": [],
      "name": "totalSupply",
      "outputs": [
        {
          "internalType": "uint256",
          "name": "",
          "type": "uint256"
        }
      ],
      "stateMutability": "view",
      "type": "function"
    },
    {
      "inputs": [
        {
          "internalType": "address",
          "name": "from",
          "type": "address"
        },
        {
          "internalType": "address",
          "name": "to",
          "type": "address"
        },
        {
          "internalType": "uint256",
          "name": "tokenId",
          "type": "uint256"
        }
      ],
      "name": "transferFrom",
      "outputs": [],
      "stateMutability": "nonpayable",
      "type": "function"
    },
    {
      "inputs": [
        {
          "internalType": "address",
          "name": "newOwner",
          "type": "address"
        }
      ],
      "name": "transferOwnership",
      "outputs": [],
      "stateMutability": "nonpayable",
      "type": "function"
    },
    {
      "inputs": [
        {
          "internalType": "address",
          "name": "",
          "type": "address"
        }
      ],
      "name": "walletMints",
      "outputs": [
        {
          "internalType": "uint256",
          "name": "",
          "type": "uint256"
        }
      ],
      "stateMutability": "view",
      "type": "function"
    },
    {
      "inputs": [],
      "name": "withdralWallet",
      "outputs": [
        {
          "internalType": "address payable",
          "name": "",
          "type": "address"
        }
      ],
      "stateMutability": "view",
      "type": "function"
    },
    {
      "inputs": [],
      "name": "withdraw",
      "outputs": [],
      "stateMutability": "nonpayable",
      "type": "function"
    }
  ],
  "bytecode": "0x60096080818152684a75737450756e6b7360b81b60a0908152610100604052600260c09081526104a560f41b60e05291926200003e91600091620000e8565b50805162000054906001906020840190620000e8565b505050620000716200006b6200009260201b60201c565b62000096565b66470de4df82000060075560006008556127106009556001600a55620001cb565b3390565b600680546001600160a01b038381166001600160a01b0319831681179093556040519116919082907f8be0079c531659141344cd1fd0a4f28419497f9722a3daafe3b4186f6b6457e090600090a35050565b828054620000f6906200018e565b90600052602060002090601f0160209004810192826200011a576000855562000165565b82601f106200013557805160ff191683800117855562000165565b8280016001018555821562000165579182015b828111156200016557825182559160200191906001019062000148565b506200017392915062000177565b5090565b5b8082111562000173576000815560010162000178565b600181811c90821680620001a357607f821691505b60208210811415620001c557634e487b7160e01b600052602260045260246000fd5b50919050565b611c7b80620001db6000396000f3fe60806040526004361061019b5760003560e01c80636817c76c116100ec578063a22cb4651161008a578063d5abeb0111610064578063d5abeb011461046b578063e985e9c514610481578063f0293fd3146104ca578063f2fde38b146104f757600080fd5b8063a22cb4651461040b578063b88d4fde1461042b578063c87b56dd1461044b57600080fd5b80638da5cb5b116100c65780638da5cb5b146103a557806395652cfa146103c357806395d89b41146103e3578063a0712d68146103f857600080fd5b80636817c76c1461035a57806370a0823114610370578063715018a61461039057600080fd5b806318160ddd116101595780633ccfd60b116101335780633ccfd60b146102ef57806342842e0e14610304578063453c2310146103245780636352211e1461033a57600080fd5b806318160ddd1461028b5780632373ac22146102af57806323b872dd146102cf57600080fd5b8062f4c75b146101a05780630116bc2d146101dd57806301ffc9a71461020757806306fdde0314610227578063081812fc14610249578063095ea7b314610269575b600080fd5b3480156101ac57600080fd5b50600d546101c0906001600160a01b031681565b6040516001600160a01b0390911681526020015b60405180910390f35b3480156101e957600080fd5b50600b546101f79060ff1681565b60405190151581526020016101d4565b34801561021357600080fd5b506101f761022236600461180e565b610517565b34801561023357600080fd5b5061023c610569565b6040516101d49190611a0a565b34801561025557600080fd5b506101c06102643660046118b3565b6105fb565b34801561027557600080fd5b506102896102843660046117cb565b610695565b005b34801561029757600080fd5b506102a160085481565b6040519081526020016101d4565b3480156102bb57600080fd5b506102896102ca3660046117f4565b6107ab565b3480156102db57600080fd5b506102896102ea366004611692565b6107e8565b3480156102fb57600080fd5b50610289610819565b34801561031057600080fd5b5061028961031f366004611692565b6108db565b34801561033057600080fd5b506102a1600a5481565b34801561034657600080fd5b506101c06103553660046118b3565b6108f6565b34801561036657600080fd5b506102a160075481565b34801561037c57600080fd5b506102a161038b36600461163f565b61096d565b34801561039c57600080fd5b506102896109f4565b3480156103b157600080fd5b506006546001600160a01b03166101c0565b3480156103cf57600080fd5b506102896103de366004611846565b610a2a565b3480156103ef57600080fd5b5061023c610a60565b6102896104063660046118b3565b610a6f565b34801561041757600080fd5b506102896104263660046117a2565b610c04565b34801561043757600080fd5b506102896104463660046116cd565b610c0f565b34801561045757600080fd5b5061023c6104663660046118b3565b610c47565b34801561047757600080fd5b506102a160095481565b34801561048d57600080fd5b506101f761049c366004611660565b6001600160a01b03918216600090815260056020908152604080832093909416825291909152205460ff1690565b3480156104d657600080fd5b506102a16104e536600461163f565b600e6020526000908152604090205481565b34801561050357600080fd5b5061028961051236600461163f565b610cd7565b60006001600160e01b031982166380ac58cd60e01b148061054857506001600160e01b03198216635b5e139f60e01b145b8061056357506301ffc9a760e01b6001600160e01b03198316145b92915050565b60606000805461057890611b83565b80601f01602080910402602001604051908101604052809291908181526020018280546105a490611b83565b80156105f15780601f106105c6576101008083540402835291602001916105f1565b820191906000526020600020905b8154815290600101906020018083116105d457829003601f168201915b5050505050905090565b6000818152600260205260408120546001600160a01b03166106795760405162461bcd60e51b815260206004820152602c60248201527f4552433732313a20617070726f76656420717565727920666f72206e6f6e657860448201526b34b9ba32b73a103a37b5b2b760a11b60648201526084015b60405180910390fd5b506000908152600460205260409020546001600160a01b031690565b60006106a0826108f6565b9050806001600160a01b0316836001600160a01b0316141561070e5760405162461bcd60e51b815260206004820152602160248201527f4552433732313a20617070726f76616c20746f2063757272656e74206f776e656044820152603960f91b6064820152608401610670565b336001600160a01b038216148061072a575061072a813361049c565b61079c5760405162461bcd60e51b815260206004820152603860248201527f4552433732313a20617070726f76652063616c6c6572206973206e6f74206f7760448201527f6e6572206e6f7220617070726f76656420666f7220616c6c00000000000000006064820152608401610670565b6107a68383610d6f565b505050565b6006546001600160a01b031633146107d55760405162461bcd60e51b815260040161067090611a6f565b600b805460ff1916911515919091179055565b6107f23382610ddd565b61080e5760405162461bcd60e51b815260040161067090611aa4565b6107a6838383610ed4565b6006546001600160a01b031633146108435760405162461bcd60e51b815260040161067090611a6f565b600d546040516000916001600160a01b03169047908381818185875af1925050503d8060008114610890576040519150601f19603f3d011682016040523d82523d6000602084013e610895565b606091505b50509050806108d85760405162461bcd60e51b815260206004820152600f60248201526e1dda5d1a191c985dc819985a5b1959608a1b6044820152606401610670565b50565b6107a683838360405180602001604052806000815250610c0f565b6000818152600260205260408120546001600160a01b0316806105635760405162461bcd60e51b815260206004820152602960248201527f4552433732313a206f776e657220717565727920666f72206e6f6e657869737460448201526832b73a103a37b5b2b760b91b6064820152608401610670565b60006001600160a01b0382166109d85760405162461bcd60e51b815260206004820152602a60248201527f4552433732313a2062616c616e636520717565727920666f7220746865207a65604482015269726f206164647265737360b01b6064820152608401610670565b506001600160a01b031660009081526003602052604090205490565b6006546001600160a01b03163314610a1e5760405162461bcd60e51b815260040161067090611a6f565b610a286000611070565b565b6006546001600160a01b03163314610a545760405162461bcd60e51b815260040161067090611a6f565b6107a6600c838361157a565b60606001805461057890611b83565b600b5460ff16610ab75760405162461bcd60e51b81526020600482015260136024820152721b5a5b9d1a5b99c81b9bdd08195b98589b1959606a1b6044820152606401610670565b600754610ac49082611b21565b3414610b065760405162461bcd60e51b815260206004820152601160248201527003bb937b7339036b4b73a103b30b63ab29607d1b6044820152606401610670565b60095481600854610b179190611af5565b1115610b505760405162461bcd60e51b81526020600482015260086024820152671cdbdb19081bdd5d60c21b6044820152606401610670565b600a54336000908152600e6020526040902054610b6e908390611af5565b1115610bb05760405162461bcd60e51b8152602060048201526011602482015270195e18d95959081b585e081dd85b1b195d607a1b6044820152606401610670565b60005b81811015610c005760006008546001610bcc9190611af5565b600880549192506000610bde83611bbe565b9190505550610bed33826110c2565b5080610bf881611bbe565b915050610bb3565b5050565b610c003383836110dc565b610c193383610ddd565b610c355760405162461bcd60e51b815260040161067090611aa4565b610c41848484846111ab565b50505050565b6000818152600260205260409020546060906001600160a01b0316610ca55760405162461bcd60e51b8152602060048201526014602482015273151bdad95b88191bd95cc81b9bdd08195e1cda5d60621b6044820152606401610670565b600c610cb0836111de565b604051602001610cc1929190611913565b6040516020818303038152906040529050919050565b6006546001600160a01b03163314610d015760405162461bcd60e51b815260040161067090611a6f565b6001600160a01b038116610d665760405162461bcd60e51b815260206004820152602660248201527f4f776e61626c653a206e6577206f776e657220697320746865207a65726f206160448201526564647265737360d01b6064820152608401610670565b6108d881611070565b600081815260046020526040902080546001600160a01b0319166001600160a01b0384169081179091558190610da4826108f6565b6001600160a01b03167f8c5be1e5ebec7d5bd14f71427d1e84f3dd0314c0f7b2291e5b200ac8c7c3b92560405160405180910390a45050565b6000818152600260205260408120546001600160a01b0316610e565760405162461bcd60e51b815260206004820152602c60248201527f4552433732313a206f70657261746f7220717565727920666f72206e6f6e657860448201526b34b9ba32b73a103a37b5b2b760a11b6064820152608401610670565b6000610e61836108f6565b9050806001600160a01b0316846001600160a01b03161480610ea857506001600160a01b0380821660009081526005602090815260408083209388168352929052205460ff165b80610ecc5750836001600160a01b0316610ec1846105fb565b6001600160a01b0316145b949350505050565b826001600160a01b0316610ee7826108f6565b6001600160a01b031614610f4b5760405162461bcd60e51b815260206004820152602560248201527f4552433732313a207472616e736665722066726f6d20696e636f72726563742060448201526437bbb732b960d91b6064820152608401610670565b6001600160a01b038216610fad5760405162461bcd60e51b8152602060048201526024808201527f4552433732313a207472616e7366657220746f20746865207a65726f206164646044820152637265737360e01b6064820152608401610670565b610fb8600082610d6f565b6001600160a01b0383166000908152600360205260408120805460019290610fe1908490611b40565b90915550506001600160a01b038216600090815260036020526040812080546001929061100f908490611af5565b909155505060008181526002602052604080822080546001600160a01b0319166001600160a01b0386811691821790925591518493918716917fddf252ad1be2c89b69c2b068fc378daa952ba7f163c4a11628f55a4df523b3ef91a4505050565b600680546001600160a01b038381166001600160a01b0319831681179093556040519116919082907f8be0079c531659141344cd1fd0a4f28419497f9722a3daafe3b4186f6b6457e090600090a35050565b610c008282604051806020016040528060008152506112f8565b816001600160a01b0316836001600160a01b0316141561113e5760405162461bcd60e51b815260206004820152601960248201527f4552433732313a20617070726f766520746f2063616c6c6572000000000000006044820152606401610670565b6001600160a01b03838116600081815260056020908152604080832094871680845294825291829020805460ff191686151590811790915591519182527f17307eab39ab6107e8899845ad3d59bd9653f200f220920489ca2b5937696c31910160405180910390a3505050565b6111b6848484610ed4565b6111c28484848461132b565b610c415760405162461bcd60e51b815260040161067090611a1d565b6060816112025750506040805180820190915260018152600360fc1b602082015290565b8160005b811561122c578061121681611bbe565b91506112259050600a83611b0d565b9150611206565b60008167ffffffffffffffff81111561125557634e487b7160e01b600052604160045260246000fd5b6040519080825280601f01601f19166020018201604052801561127f576020820181803683370190505b5090505b8415610ecc57611294600183611b40565b91506112a1600a86611bd9565b6112ac906030611af5565b60f81b8183815181106112cf57634e487b7160e01b600052603260045260246000fd5b60200101906001600160f81b031916908160001a9053506112f1600a86611b0d565b9450611283565b6113028383611438565b61130f600084848461132b565b6107a65760405162461bcd60e51b815260040161067090611a1d565b60006001600160a01b0384163b1561142d57604051630a85bd0160e11b81526001600160a01b0385169063150b7a029061136f9033908990889088906004016119cd565b602060405180830381600087803b15801561138957600080fd5b505af19250505080156113b9575060408051601f3d908101601f191682019092526113b69181019061182a565b60015b611413573d8080156113e7576040519150601f19603f3d011682016040523d82523d6000602084013e6113ec565b606091505b50805161140b5760405162461bcd60e51b815260040161067090611a1d565b805181602001fd5b6001600160e01b031916630a85bd0160e11b149050610ecc565b506001949350505050565b6001600160a01b03821661148e5760405162461bcd60e51b815260206004820181905260248201527f4552433732313a206d696e7420746f20746865207a65726f20616464726573736044820152606401610670565b6000818152600260205260409020546001600160a01b0316156114f35760405162461bcd60e51b815260206004820152601c60248201527f4552433732313a20746f6b656e20616c7265616479206d696e746564000000006044820152606401610670565b6001600160a01b038216600090815260036020526040812080546001929061151c908490611af5565b909155505060008181526002602052604080822080546001600160a01b0319166001600160a01b03861690811790915590518392907fddf252ad1be2c89b69c2b068fc378daa952ba7f163c4a11628f55a4df523b3ef908290a45050565b82805461158690611b83565b90600052602060002090601f0160209004810192826115a857600085556115ee565b82601f106115c15782800160ff198235161785556115ee565b828001600101855582156115ee579182015b828111156115ee5782358255916020019190600101906115d3565b506115fa9291506115fe565b5090565b5b808211156115fa57600081556001016115ff565b80356001600160a01b038116811461162a57600080fd5b919050565b8035801515811461162a57600080fd5b600060208284031215611650578081fd5b61165982611613565b9392505050565b60008060408385031215611672578081fd5b61167b83611613565b915061168960208401611613565b90509250929050565b6000806000606084860312156116a6578081fd5b6116af84611613565b92506116bd60208501611613565b9150604084013590509250925092565b600080600080608085870312156116e2578081fd5b6116eb85611613565b93506116f960208601611613565b925060408501359150606085013567ffffffffffffffff8082111561171c578283fd5b818701915087601f83011261172f578283fd5b81358181111561174157611741611c19565b604051601f8201601f19908116603f0116810190838211818310171561176957611769611c19565b816040528281528a6020848701011115611781578586fd5b82602086016020830137918201602001949094529598949750929550505050565b600080604083850312156117b4578182fd5b6117bd83611613565b91506116896020840161162f565b600080604083850312156117dd578182fd5b6117e683611613565b946020939093013593505050565b600060208284031215611805578081fd5b6116598261162f565b60006020828403121561181f578081fd5b813561165981611c2f565b60006020828403121561183b578081fd5b815161165981611c2f565b60008060208385031215611858578182fd5b823567ffffffffffffffff8082111561186f578384fd5b818501915085601f830112611882578384fd5b813581811115611890578485fd5b8660208285010111156118a1578485fd5b60209290920196919550909350505050565b6000602082840312156118c4578081fd5b5035919050565b600081518084526118e3816020860160208601611b57565b601f01601f19169290920160200192915050565b60008151611909818560208601611b57565b9290920192915050565b600080845482600182811c91508083168061192f57607f831692505b602080841082141561194f57634e487b7160e01b87526022600452602487fd5b8180156119635760018114611974576119a0565b60ff198616895284890196506119a0565b60008b815260209020885b868110156119985781548b82015290850190830161197f565b505084890196505b5050505050506119c46119b382866118f7565b64173539b7b760d91b815260050190565b95945050505050565b6001600160a01b0385811682528416602082015260408101839052608060608201819052600090611a00908301846118cb565b9695505050505050565b60208152600061165960208301846118cb565b60208082526032908201527f4552433732313a207472616e7366657220746f206e6f6e20455243373231526560408201527131b2b4bb32b91034b6b83632b6b2b73a32b960711b606082015260800190565b6020808252818101527f4f776e61626c653a2063616c6c6572206973206e6f7420746865206f776e6572604082015260600190565b60208082526031908201527f4552433732313a207472616e736665722063616c6c6572206973206e6f74206f6040820152701ddb995c881b9bdc88185c1c1c9bdd9959607a1b606082015260800190565b60008219821115611b0857611b08611bed565b500190565b600082611b1c57611b1c611c03565b500490565b6000816000190483118215151615611b3b57611b3b611bed565b500290565b600082821015611b5257611b52611bed565b500390565b60005b83811015611b72578181015183820152602001611b5a565b83811115610c415750506000910152565b600181811c90821680611b9757607f821691505b60208210811415611bb857634e487b7160e01b600052602260045260246000fd5b50919050565b6000600019821415611bd257611bd2611bed565b5060010190565b600082611be857611be8611c03565b500690565b634e487b7160e01b600052601160045260246000fd5b634e487b7160e01b600052601260045260246000fd5b634e487b7160e01b600052604160045260246000fd5b6001600160e01b0319811681146108d857600080fdfea2646970667358221220bf08592bc89f501140cc3a0f2f277a029a8430407353fa05015e6a96cc105bc564736f6c63430008040033",
  "linkReferences": {},
  "deployedLinkReferences": {}
}